{
  "_format": "hh-sol-artifact-1",
  "contractName": "BridgeBSC",
  "sourceName": "contracts/BridgeBSC.sol",
  "abi": [
    {
      "anonymous": false,
      "inputs": [
        {
          "indexed": true,
          "internalType": "address",
          "name": "previousOwner",
          "type": "address"
        },
        {
          "indexed": true,
          "internalType": "address",
          "name": "newOwner",
          "type": "address"
        }
      ],
      "name": "OwnershipTransferred",
      "type": "event"
    },
    {
      "anonymous": false,
      "inputs": [
        {
          "indexed": false,
          "internalType": "address",
          "name": "",
          "type": "address"
        },
        {
          "indexed": false,
          "internalType": "uint256",
          "name": "",
          "type": "uint256"
        }
      ],
      "name": "Received",
      "type": "event"
    },
    {
      "anonymous": false,
      "inputs": [
        {
          "indexed": false,
          "internalType": "address",
          "name": "",
          "type": "address"
        },
        {
          "indexed": false,
          "internalType": "uint256",
          "name": "",
          "type": "uint256"
        }
      ],
      "name": "Withdraw",
      "type": "event"
    },
    {
      "inputs": [],
      "name": "ethBalance",
      "outputs": [
        {
          "internalType": "uint256",
          "name": "",
          "type": "uint256"
        }
      ],
      "stateMutability": "view",
      "type": "function"
    },
    {
      "inputs": [],
      "name": "fee",
      "outputs": [
        {
          "internalType": "uint256",
          "name": "",
          "type": "uint256"
        }
      ],
      "stateMutability": "view",
      "type": "function"
    },
    {
      "inputs": [],
      "name": "feeDenominator",
      "outputs": [
        {
          "internalType": "uint256",
          "name": "",
          "type": "uint256"
        }
      ],
      "stateMutability": "view",
      "type": "function"
    },
    {
      "inputs": [],
      "name": "feeReceiver",
      "outputs": [
        {
          "internalType": "address",
          "name": "",
          "type": "address"
        }
      ],
      "stateMutability": "view",
      "type": "function"
    },
    {
      "inputs": [
        {
          "internalType": "uint256",
          "name": "_amount",
          "type": "uint256"
        }
      ],
      "name": "initiate",
      "outputs": [],
      "stateMutability": "payable",
      "type": "function"
    },
    {
      "inputs": [],
      "name": "owner",
      "outputs": [
        {
          "internalType": "address",
          "name": "",
          "type": "address"
        }
      ],
      "stateMutability": "view",
      "type": "function"
    },
    {
      "inputs": [],
      "name": "renounceOwnership",
      "outputs": [],
      "stateMutability": "nonpayable",
      "type": "function"
    },
    {
      "inputs": [],
      "name": "tokenReceiver",
      "outputs": [
        {
          "internalType": "address",
          "name": "",
          "type": "address"
        }
      ],
      "stateMutability": "view",
      "type": "function"
    },
    {
      "inputs": [
        {
          "internalType": "address",
          "name": "_to",
          "type": "address"
        },
        {
          "internalType": "uint256",
          "name": "_amount",
          "type": "uint256"
        }
      ],
      "name": "transfer",
      "outputs": [],
      "stateMutability": "nonpayable",
      "type": "function"
    },
    {
      "inputs": [
        {
          "internalType": "address",
          "name": "newOwner",
          "type": "address"
        }
      ],
      "name": "transferOwnership",
      "outputs": [],
      "stateMutability": "nonpayable",
      "type": "function"
    },
    {
      "inputs": [
        {
          "internalType": "address",
          "name": "_receiver",
          "type": "address"
        }
      ],
      "name": "updateTokenReceiver",
      "outputs": [],
      "stateMutability": "nonpayable",
      "type": "function"
    },
    {
      "inputs": [
        {
          "internalType": "uint256",
          "name": "_amount",
          "type": "uint256"
        }
      ],
      "name": "withdrawBRISE",
      "outputs": [],
      "stateMutability": "nonpayable",
      "type": "function"
    },
    {
      "inputs": [
        {
          "internalType": "uint256",
          "name": "_amount",
          "type": "uint256"
        }
      ],
      "name": "withdrawETH",
      "outputs": [],
      "stateMutability": "nonpayable",
      "type": "function"
    },
    {
      "stateMutability": "payable",
      "type": "receive"
    }
  ],
  "bytecode": "0x6080604052600180546001600160a01b031990811673b66651fe14178a10017053a2417565a88162ec1717909155600280548216737604cc735baaf33283dc4f3372a7b4a14b93ce1090811790915560038054909216179055600560048190556064905534801561006f57600080fd5b506100793361007e565b6100ce565b600080546001600160a01b038381166001600160a01b0319831681178455604051919092169283917f8be0079c531659141344cd1fd0a4f28419497f9722a3daafe3b4186f6b6457e09190a35050565b610a4b806100dd6000396000f3fe6080604052600436106100c65760003560e01c8063a3e295bc1161007f578063cd944f7f11610059578063cd944f7f146101ec578063ddca3f431461020c578063f14210a614610222578063f2fde38b1461024257600080fd5b8063a3e295bc1461018c578063a9059cbb146101ac578063b3f00674146101cc57600080fd5b8063180b0d7e146100d2578063457aab3a146100fb5780634e6630b01461011d578063715018a6146101325780637901ea78146101475780638da5cb5b1461015a57600080fd5b366100cd57005b600080fd5b3480156100de57600080fd5b506100e860055481565b6040519081526020015b60405180910390f35b34801561010757600080fd5b5061011b610116366004610975565b610262565b005b34801561012957600080fd5b506100e86102f6565b34801561013e57600080fd5b5061011b610305565b61011b610155366004610975565b610319565b34801561016657600080fd5b506000546001600160a01b03165b6040516001600160a01b0390911681526020016100f2565b34801561019857600080fd5b50600254610174906001600160a01b031681565b3480156101b857600080fd5b5061011b6101c7366004610929565b610570565b3480156101d857600080fd5b50600354610174906001600160a01b031681565b3480156101f857600080fd5b5061011b61020736600461090e565b6106c5565b34801561021857600080fd5b506100e860045481565b34801561022e57600080fd5b5061011b61023d366004610975565b6106ef565b34801561024e57600080fd5b5061011b61025d36600461090e565b6107b0565b61026a610829565b60015460035460405163a9059cbb60e01b81526001600160a01b0391821660048201526024810184905291169063a9059cbb90604401602060405180830381600087803b1580156102ba57600080fd5b505af11580156102ce573d6000803e3d6000fd5b505050506040513d601f19601f820116820180604052508101906102f29190610953565b5050565b6000610300610829565b504790565b61030d610829565b6103176000610883565b565b600154604051636eb1769f60e11b8152336004820152306024820152829182916001600160a01b039091169063dd62ed3e9060440160206040518083038186803b15801561036657600080fd5b505afa15801561037a573d6000803e3d6000fd5b505050506040513d601f19601f8201168201806040525081019061039e919061098e565b10156103d95760405162461bcd60e51b815260206004820152600560248201526422b93937b960d91b60448201526064015b60405180910390fd5b60006103fc6005546103f6600454866108d390919063ffffffff16565b906108e6565b6001546003546040516323b872dd60e01b81523360048201526001600160a01b0391821660248201526044810184905292935016906323b872dd90606401602060405180830381600087803b15801561045457600080fd5b505af1158015610468573d6000803e3d6000fd5b505050506040513d601f19601f8201168201806040525081019061048c9190610953565b506001546001600160a01b03166323b872dd33306104aa85886109e8565b6040516001600160e01b031960e086901b1681526001600160a01b0393841660048201529290911660248301526044820152606401602060405180830381600087803b1580156104f957600080fd5b505af115801561050d573d6000803e3d6000fd5b505050506040513d601f19601f820116820180604052508101906105319190610953565b5060408051338152602081018590527f88a5966d370b9919b20f3e2c13ff65706f196a4e32cc2c12bf57088f88525874910160405180910390a1505050565b610578610829565b600154604051636eb1769f60e11b8152336004820152306024820152829182916001600160a01b039091169063dd62ed3e9060440160206040518083038186803b1580156105c557600080fd5b505afa1580156105d9573d6000803e3d6000fd5b505050506040513d601f19601f820116820180604052508101906105fd919061098e565b10156106335760405162461bcd60e51b815260206004820152600560248201526422b93937b960d91b60448201526064016103d0565b6001546040516323b872dd60e01b81523360048201526001600160a01b03858116602483015260448201859052909116906323b872dd90606401602060405180830381600087803b15801561068757600080fd5b505af115801561069b573d6000803e3d6000fd5b505050506040513d601f19601f820116820180604052508101906106bf9190610953565b50505050565b6106cd610829565b600280546001600160a01b0319166001600160a01b0392909216919091179055565b6106f7610829565b6002546040516000916001600160a01b03169083156108fc0290849084818181858888f193505050509050806107665760405162461bcd60e51b81526020600482015260146024820152734661696c656420746f2073656e6420425249534560601b60448201526064016103d0565b600254604080516001600160a01b039092168252602082018490527f884edad9ce6fa2440d8a54cc123490eb96d2768479d49ff9c7366125a9424364910160405180910390a15050565b6107b8610829565b6001600160a01b03811661081d5760405162461bcd60e51b815260206004820152602660248201527f4f776e61626c653a206e6577206f776e657220697320746865207a65726f206160448201526564647265737360d01b60648201526084016103d0565b61082681610883565b50565b6000546001600160a01b031633146103175760405162461bcd60e51b815260206004820181905260248201527f4f776e61626c653a2063616c6c6572206973206e6f7420746865206f776e657260448201526064016103d0565b600080546001600160a01b038381166001600160a01b0319831681178455604051919092169283917f8be0079c531659141344cd1fd0a4f28419497f9722a3daafe3b4186f6b6457e09190a35050565b60006108df82846109c9565b9392505050565b60006108df82846109a7565b80356001600160a01b038116811461090957600080fd5b919050565b60006020828403121561092057600080fd5b6108df826108f2565b6000806040838503121561093c57600080fd5b610945836108f2565b946020939093013593505050565b60006020828403121561096557600080fd5b815180151581146108df57600080fd5b60006020828403121561098757600080fd5b5035919050565b6000602082840312156109a057600080fd5b5051919050565b6000826109c457634e487b7160e01b600052601260045260246000fd5b500490565b60008160001904831182151516156109e3576109e36109ff565b500290565b6000828210156109fa576109fa6109ff565b500390565b634e487b7160e01b600052601160045260246000fdfea2646970667358221220b0f71eb52edb1a2a662e63f8accbccc02593762b73160ecd9e08347f2da6471164736f6c63430008070033",
  "linkReferences": {},
  "deployedLinkReferences": {}
}