{
  "_format": "hh-sol-artifact-1",
  "contractName": "Bridge",
  "sourceName": "contracts/Bridge.sol",
  "abi": [
    {
      "anonymous": false,
      "inputs": [
        {
          "indexed": true,
          "internalType": "address",
          "name": "previousOwner",
          "type": "address"
        },
        {
          "indexed": true,
          "internalType": "address",
          "name": "newOwner",
          "type": "address"
        }
      ],
      "name": "OwnershipTransferred",
      "type": "event"
    },
    {
      "anonymous": false,
      "inputs": [
        {
          "indexed": false,
          "internalType": "address",
          "name": "",
          "type": "address"
        },
        {
          "indexed": false,
          "internalType": "uint256",
          "name": "",
          "type": "uint256"
        }
      ],
      "name": "Received",
      "type": "event"
    },
    {
      "anonymous": false,
      "inputs": [
        {
          "indexed": false,
          "internalType": "address",
          "name": "",
          "type": "address"
        },
        {
          "indexed": false,
          "internalType": "uint256",
          "name": "",
          "type": "uint256"
        }
      ],
      "name": "Withdraw",
      "type": "event"
    },
    {
      "inputs": [],
      "name": "ethBalance",
      "outputs": [
        {
          "internalType": "uint256",
          "name": "",
          "type": "uint256"
        }
      ],
      "stateMutability": "view",
      "type": "function"
    },
    {
      "inputs": [],
      "name": "fee",
      "outputs": [
        {
          "internalType": "uint256",
          "name": "",
          "type": "uint256"
        }
      ],
      "stateMutability": "view",
      "type": "function"
    },
    {
      "inputs": [],
      "name": "feeDenominator",
      "outputs": [
        {
          "internalType": "uint256",
          "name": "",
          "type": "uint256"
        }
      ],
      "stateMutability": "view",
      "type": "function"
    },
    {
      "inputs": [],
      "name": "feeReceiver",
      "outputs": [
        {
          "internalType": "address",
          "name": "",
          "type": "address"
        }
      ],
      "stateMutability": "view",
      "type": "function"
    },
    {
      "inputs": [],
      "name": "initiate",
      "outputs": [],
      "stateMutability": "payable",
      "type": "function"
    },
    {
      "inputs": [],
      "name": "owner",
      "outputs": [
        {
          "internalType": "address",
          "name": "",
          "type": "address"
        }
      ],
      "stateMutability": "view",
      "type": "function"
    },
    {
      "inputs": [],
      "name": "renounceOwnership",
      "outputs": [],
      "stateMutability": "nonpayable",
      "type": "function"
    },
    {
      "inputs": [],
      "name": "tokenReceiver",
      "outputs": [
        {
          "internalType": "address",
          "name": "",
          "type": "address"
        }
      ],
      "stateMutability": "view",
      "type": "function"
    },
    {
      "inputs": [
        {
          "internalType": "address",
          "name": "_to",
          "type": "address"
        },
        {
          "internalType": "uint256",
          "name": "_amount",
          "type": "uint256"
        }
      ],
      "name": "transfer",
      "outputs": [],
      "stateMutability": "nonpayable",
      "type": "function"
    },
    {
      "inputs": [
        {
          "internalType": "address",
          "name": "newOwner",
          "type": "address"
        }
      ],
      "name": "transferOwnership",
      "outputs": [],
      "stateMutability": "nonpayable",
      "type": "function"
    },
    {
      "inputs": [
        {
          "internalType": "address",
          "name": "_receiver",
          "type": "address"
        }
      ],
      "name": "updateTokenReceiver",
      "outputs": [],
      "stateMutability": "nonpayable",
      "type": "function"
    },
    {
      "inputs": [
        {
          "internalType": "uint256",
          "name": "_amount",
          "type": "uint256"
        }
      ],
      "name": "withdrawETH",
      "outputs": [],
      "stateMutability": "nonpayable",
      "type": "function"
    },
    {
      "stateMutability": "payable",
      "type": "receive"
    }
  ],
  "bytecode": "0x608060405260018054737604cc735baaf33283dc4f3372a7b4a14b93ce106001600160a01b031991821681179092556002805490911690911790556005600355606460045534801561005057600080fd5b5061005a3361005f565b6100af565b600080546001600160a01b038381166001600160a01b0319831681178455604051919092169283917f8be0079c531659141344cd1fd0a4f28419497f9722a3daafe3b4186f6b6457e09190a35050565b61071f806100be6000396000f3fe6080604052600436106100ab5760003560e01c8063a9059cbb11610064578063a9059cbb14610166578063b3f0067414610186578063cd944f7f146101a6578063ddca3f43146101c6578063f14210a6146101dc578063f2fde38b146101fc57600080fd5b8063180b0d7e146100b75780634e6630b0146100e057806366aa56c5146100f5578063715018a6146100ff5780638da5cb5b14610114578063a3e295bc1461014657600080fd5b366100b257005b600080fd5b3480156100c357600080fd5b506100cd60045481565b6040519081526020015b60405180910390f35b3480156100ec57600080fd5b506100cd61021c565b6100fd61022b565b005b34801561010b57600080fd5b506100fd61036b565b34801561012057600080fd5b506000546001600160a01b03165b6040516001600160a01b0390911681526020016100d7565b34801561015257600080fd5b5060015461012e906001600160a01b031681565b34801561017257600080fd5b506100fd610181366004610657565b61037f565b34801561019257600080fd5b5060025461012e906001600160a01b031681565b3480156101b257600080fd5b506100fd6101c136600461063c565b6103f3565b3480156101d257600080fd5b506100cd60035481565b3480156101e857600080fd5b506100fd6101f7366004610681565b61041d565b34801561020857600080fd5b506100fd61021736600461063c565b6104de565b6000610226610557565b504790565b6000349050600061025360045461024d600354856105b190919063ffffffff16565b906105c4565b6002546040519192506000916001600160a01b039091169083156108fc0290849084818181858888f193505050509050806102ca5760405162461bcd60e51b81526020600482015260126024820152714661696c656420746f2073656e642066656560701b60448201526064015b60405180910390fd5b60405160009030903480156108fc029184818181858888f1935050505090508061032d5760405162461bcd60e51b81526020600482015260146024820152734661696c656420746f2073656e6420425249534560601b60448201526064016102c1565b604080513381523460208201527f88a5966d370b9919b20f3e2c13ff65706f196a4e32cc2c12bf57088f88525874910160405180910390a150505050565b610373610557565b61037d60006105d0565b565b610387610557565b6040516000906001600160a01b0384169083156108fc0290849084818181858888f193505050509050806103ee5760405162461bcd60e51b815260206004820152600e60248201526d11985a5b1959081d1bc81cd95b9960921b60448201526064016102c1565b505050565b6103fb610557565b600180546001600160a01b0319166001600160a01b0392909216919091179055565b610425610557565b6001546040516000916001600160a01b03169083156108fc0290849084818181858888f193505050509050806104945760405162461bcd60e51b81526020600482015260146024820152734661696c656420746f2073656e6420425249534560601b60448201526064016102c1565b600154604080516001600160a01b039092168252602082018490527f884edad9ce6fa2440d8a54cc123490eb96d2768479d49ff9c7366125a9424364910160405180910390a15050565b6104e6610557565b6001600160a01b03811661054b5760405162461bcd60e51b815260206004820152602660248201527f4f776e61626c653a206e6577206f776e657220697320746865207a65726f206160448201526564647265737360d01b60648201526084016102c1565b610554816105d0565b50565b6000546001600160a01b0316331461037d5760405162461bcd60e51b815260206004820181905260248201527f4f776e61626c653a2063616c6c6572206973206e6f7420746865206f776e657260448201526064016102c1565b60006105bd82846106bc565b9392505050565b60006105bd828461069a565b600080546001600160a01b038381166001600160a01b0319831681178455604051919092169283917f8be0079c531659141344cd1fd0a4f28419497f9722a3daafe3b4186f6b6457e09190a35050565b80356001600160a01b038116811461063757600080fd5b919050565b60006020828403121561064e57600080fd5b6105bd82610620565b6000806040838503121561066a57600080fd5b61067383610620565b946020939093013593505050565b60006020828403121561069357600080fd5b5035919050565b6000826106b757634e487b7160e01b600052601260045260246000fd5b500490565b60008160001904831182151516156106e457634e487b7160e01b600052601160045260246000fd5b50029056fea2646970667358221220e260abd21b16e021c929c96a28ab31be004116094564bf534cca48ea1c04eb7564736f6c63430008070033",
  "linkReferences": {},
  "deployedLinkReferences": {}
}