{
  "_format": "hh-sol-artifact-1",
  "contractName": "BridgeBNB",
  "sourceName": "contracts/BridgeBNB.sol",
  "abi": [
    {
      "anonymous": false,
      "inputs": [
        {
          "indexed": true,
          "internalType": "address",
          "name": "previousOwner",
          "type": "address"
        },
        {
          "indexed": true,
          "internalType": "address",
          "name": "newOwner",
          "type": "address"
        }
      ],
      "name": "OwnershipTransferred",
      "type": "event"
    },
    {
      "anonymous": false,
      "inputs": [
        {
          "indexed": false,
          "internalType": "address",
          "name": "",
          "type": "address"
        },
        {
          "indexed": false,
          "internalType": "uint256",
          "name": "",
          "type": "uint256"
        }
      ],
      "name": "Received",
      "type": "event"
    },
    {
      "anonymous": false,
      "inputs": [
        {
          "indexed": false,
          "internalType": "address",
          "name": "",
          "type": "address"
        },
        {
          "indexed": false,
          "internalType": "uint256",
          "name": "",
          "type": "uint256"
        }
      ],
      "name": "Withdraw",
      "type": "event"
    },
    {
      "inputs": [],
      "name": "ethBalance",
      "outputs": [
        {
          "internalType": "uint256",
          "name": "",
          "type": "uint256"
        }
      ],
      "stateMutability": "view",
      "type": "function"
    },
    {
      "inputs": [],
      "name": "fee",
      "outputs": [
        {
          "internalType": "uint256",
          "name": "",
          "type": "uint256"
        }
      ],
      "stateMutability": "view",
      "type": "function"
    },
    {
      "inputs": [],
      "name": "feeDenominator",
      "outputs": [
        {
          "internalType": "uint256",
          "name": "",
          "type": "uint256"
        }
      ],
      "stateMutability": "view",
      "type": "function"
    },
    {
      "inputs": [],
      "name": "feeReceiver",
      "outputs": [
        {
          "internalType": "address",
          "name": "",
          "type": "address"
        }
      ],
      "stateMutability": "view",
      "type": "function"
    },
    {
      "inputs": [],
      "name": "initiate",
      "outputs": [],
      "stateMutability": "payable",
      "type": "function"
    },
    {
      "inputs": [],
      "name": "owner",
      "outputs": [
        {
          "internalType": "address",
          "name": "",
          "type": "address"
        }
      ],
      "stateMutability": "view",
      "type": "function"
    },
    {
      "inputs": [],
      "name": "renounceOwnership",
      "outputs": [],
      "stateMutability": "nonpayable",
      "type": "function"
    },
    {
      "inputs": [],
      "name": "tokenReceiver",
      "outputs": [
        {
          "internalType": "address",
          "name": "",
          "type": "address"
        }
      ],
      "stateMutability": "view",
      "type": "function"
    },
    {
      "inputs": [
        {
          "internalType": "address",
          "name": "_to",
          "type": "address"
        },
        {
          "internalType": "uint256",
          "name": "_amount",
          "type": "uint256"
        }
      ],
      "name": "transfer",
      "outputs": [],
      "stateMutability": "nonpayable",
      "type": "function"
    },
    {
      "inputs": [
        {
          "internalType": "address",
          "name": "newOwner",
          "type": "address"
        }
      ],
      "name": "transferOwnership",
      "outputs": [],
      "stateMutability": "nonpayable",
      "type": "function"
    },
    {
      "inputs": [
        {
          "internalType": "address",
          "name": "_receiver",
          "type": "address"
        }
      ],
      "name": "updateTokenReceiver",
      "outputs": [],
      "stateMutability": "nonpayable",
      "type": "function"
    },
    {
      "inputs": [
        {
          "internalType": "uint256",
          "name": "_amount",
          "type": "uint256"
        }
      ],
      "name": "withdrawETH",
      "outputs": [],
      "stateMutability": "nonpayable",
      "type": "function"
    },
    {
      "stateMutability": "payable",
      "type": "receive"
    }
  ],
  "bytecode": "0x6080604052600180546001600160a01b031990811673b66651fe14178a10017053a2417565a88162ec1717909155600280548216737604cc735baaf33283dc4f3372a7b4a14b93ce1090811790915560038054909216179055600560048190556064905534801561006f57600080fd5b506100793361007e565b6100ce565b600080546001600160a01b038381166001600160a01b0319831681178455604051919092169283917f8be0079c531659141344cd1fd0a4f28419497f9722a3daafe3b4186f6b6457e09190a35050565b61083b806100dd6000396000f3fe6080604052600436106100ab5760003560e01c8063a9059cbb11610064578063a9059cbb14610166578063b3f0067414610186578063cd944f7f146101a6578063ddca3f43146101c6578063f14210a6146101dc578063f2fde38b146101fc57600080fd5b8063180b0d7e146100b75780634e6630b0146100e057806366aa56c5146100f5578063715018a6146100ff5780638da5cb5b14610114578063a3e295bc1461014657600080fd5b366100b257005b600080fd5b3480156100c357600080fd5b506100cd60055481565b6040519081526020015b60405180910390f35b3480156100ec57600080fd5b506100cd61021c565b6100fd61022b565b005b34801561010b57600080fd5b506100fd61036b565b34801561012057600080fd5b506000546001600160a01b03165b6040516001600160a01b0390911681526020016100d7565b34801561015257600080fd5b5060025461012e906001600160a01b031681565b34801561017257600080fd5b506100fd610181366004610738565b61037f565b34801561019257600080fd5b5060035461012e906001600160a01b031681565b3480156101b257600080fd5b506100fd6101c136600461071d565b6104d4565b3480156101d257600080fd5b506100cd60045481565b3480156101e857600080fd5b506100fd6101f7366004610784565b6104fe565b34801561020857600080fd5b506100fd61021736600461071d565b6105bf565b6000610226610638565b504790565b6000349050600061025360055461024d6004548561069290919063ffffffff16565b906106a5565b6003546040519192506000916001600160a01b039091169083156108fc0290849084818181858888f193505050509050806102ca5760405162461bcd60e51b81526020600482015260126024820152714661696c656420746f2073656e642066656560701b60448201526064015b60405180910390fd5b60405160009030903480156108fc029184818181858888f1935050505090508061032d5760405162461bcd60e51b81526020600482015260146024820152734661696c656420746f2073656e6420425249534560601b60448201526064016102c1565b604080513381523460208201527f88a5966d370b9919b20f3e2c13ff65706f196a4e32cc2c12bf57088f88525874910160405180910390a150505050565b610373610638565b61037d60006106b1565b565b610387610638565b600154604051636eb1769f60e11b8152336004820152306024820152829182916001600160a01b039091169063dd62ed3e9060440160206040518083038186803b1580156103d457600080fd5b505afa1580156103e8573d6000803e3d6000fd5b505050506040513d601f19601f8201168201806040525081019061040c919061079d565b10156104425760405162461bcd60e51b815260206004820152600560248201526422b93937b960d91b60448201526064016102c1565b6001546040516323b872dd60e01b81523360048201526001600160a01b03858116602483015260448201859052909116906323b872dd90606401602060405180830381600087803b15801561049657600080fd5b505af11580156104aa573d6000803e3d6000fd5b505050506040513d601f19601f820116820180604052508101906104ce9190610762565b50505050565b6104dc610638565b600280546001600160a01b0319166001600160a01b0392909216919091179055565b610506610638565b6002546040516000916001600160a01b03169083156108fc0290849084818181858888f193505050509050806105755760405162461bcd60e51b81526020600482015260146024820152734661696c656420746f2073656e6420425249534560601b60448201526064016102c1565b600254604080516001600160a01b039092168252602082018490527f884edad9ce6fa2440d8a54cc123490eb96d2768479d49ff9c7366125a9424364910160405180910390a15050565b6105c7610638565b6001600160a01b03811661062c5760405162461bcd60e51b815260206004820152602660248201527f4f776e61626c653a206e6577206f776e657220697320746865207a65726f206160448201526564647265737360d01b60648201526084016102c1565b610635816106b1565b50565b6000546001600160a01b0316331461037d5760405162461bcd60e51b815260206004820181905260248201527f4f776e61626c653a2063616c6c6572206973206e6f7420746865206f776e657260448201526064016102c1565b600061069e82846107d8565b9392505050565b600061069e82846107b6565b600080546001600160a01b038381166001600160a01b0319831681178455604051919092169283917f8be0079c531659141344cd1fd0a4f28419497f9722a3daafe3b4186f6b6457e09190a35050565b80356001600160a01b038116811461071857600080fd5b919050565b60006020828403121561072f57600080fd5b61069e82610701565b6000806040838503121561074b57600080fd5b61075483610701565b946020939093013593505050565b60006020828403121561077457600080fd5b8151801515811461069e57600080fd5b60006020828403121561079657600080fd5b5035919050565b6000602082840312156107af57600080fd5b5051919050565b6000826107d357634e487b7160e01b600052601260045260246000fd5b500490565b600081600019048311821515161561080057634e487b7160e01b600052601160045260246000fd5b50029056fea2646970667358221220af41f6b6bc04864cdd98b7873d6611d4037fe22b75783a591a1c82d1bdf7b15a64736f6c63430008070033",
  "linkReferences": {},
  "deployedLinkReferences": {}
}